{
  "_format": "hh-sol-artifact-1",
  "contractName": "Sovereignity",
  "sourceName": "contracts/Sovereignity.sol",
  "abi": [
    {
      "anonymous": false,
      "inputs": [
        {
          "indexed": true,
          "internalType": "string",
          "name": "contentId",
          "type": "string"
        },
        {
          "indexed": false,
          "internalType": "string",
          "name": "contentIdString",
          "type": "string"
        },
        {
          "indexed": true,
          "internalType": "address",
          "name": "owner",
          "type": "address"
        },
        {
          "indexed": false,
          "internalType": "uint256",
          "name": "timeStamp",
          "type": "uint256"
        }
      ],
      "name": "ContentCreation",
      "type": "event"
    },
    {
      "anonymous": false,
      "inputs": [
        {
          "indexed": true,
          "internalType": "string",
          "name": "contentId",
          "type": "string"
        },
        {
          "indexed": false,
          "internalType": "string",
          "name": "contentIdString",
          "type": "string"
        },
        {
          "indexed": true,
          "internalType": "address",
          "name": "owner",
          "type": "address"
        },
        {
          "indexed": false,
          "internalType": "uint256",
          "name": "timeStamp",
          "type": "uint256"
        }
      ],
      "name": "ContentDeletion",
      "type": "event"
    },
    {
      "anonymous": false,
      "inputs": [
        {
          "indexed": true,
          "internalType": "string",
          "name": "contentId",
          "type": "string"
        },
        {
          "indexed": false,
          "internalType": "string",
          "name": "contentIdString",
          "type": "string"
        },
        {
          "indexed": true,
          "internalType": "address",
          "name": "owner",
          "type": "address"
        },
        {
          "indexed": true,
          "internalType": "address",
          "name": "newOwner",
          "type": "address"
        },
        {
          "indexed": false,
          "internalType": "uint256",
          "name": "timeStamp",
          "type": "uint256"
        }
      ],
      "name": "OwnershipTransfered",
      "type": "event"
    },
    {
      "anonymous": false,
      "inputs": [
        {
          "indexed": true,
          "internalType": "string",
          "name": "contentId",
          "type": "string"
        },
        {
          "indexed": false,
          "internalType": "string",
          "name": "contentIdString",
          "type": "string"
        },
        {
          "indexed": true,
          "internalType": "address",
          "name": "owner",
          "type": "address"
        },
        {
          "indexed": true,
          "internalType": "address",
          "name": "user",
          "type": "address"
        },
        {
          "indexed": false,
          "internalType": "uint256",
          "name": "timeStamp",
          "type": "uint256"
        }
      ],
      "name": "PermissionGranted",
      "type": "event"
    },
    {
      "anonymous": false,
      "inputs": [
        {
          "indexed": true,
          "internalType": "string",
          "name": "contentId",
          "type": "string"
        },
        {
          "indexed": false,
          "internalType": "string",
          "name": "contentIdString",
          "type": "string"
        },
        {
          "indexed": true,
          "internalType": "address",
          "name": "owner",
          "type": "address"
        },
        {
          "indexed": true,
          "internalType": "address",
          "name": "user",
          "type": "address"
        },
        {
          "indexed": false,
          "internalType": "uint256",
          "name": "timeStamp",
          "type": "uint256"
        }
      ],
      "name": "PermissionRevoked",
      "type": "event"
    },
    {
      "inputs": [
        {
          "internalType": "string",
          "name": "contentId",
          "type": "string"
        }
      ],
      "name": "addContent",
      "outputs": [],
      "stateMutability": "nonpayable",
      "type": "function"
    },
    {
      "inputs": [
        {
          "internalType": "string",
          "name": "contentId",
          "type": "string"
        },
        {
          "internalType": "address",
          "name": "user",
          "type": "address"
        }
      ],
      "name": "awardPermission",
      "outputs": [],
      "stateMutability": "nonpayable",
      "type": "function"
    },
    {
      "inputs": [
        {
          "internalType": "string",
          "name": "contentId",
          "type": "string"
        },
        {
          "internalType": "address[]",
          "name": "permUsers",
          "type": "address[]"
        }
      ],
      "name": "deleteContent",
      "outputs": [],
      "stateMutability": "nonpayable",
      "type": "function"
    },
    {
      "inputs": [
        {
          "internalType": "string",
          "name": "contentId",
          "type": "string"
        },
        {
          "internalType": "address",
          "name": "user",
          "type": "address"
        }
      ],
      "name": "isPermitted",
      "outputs": [
        {
          "internalType": "bool",
          "name": "",
          "type": "bool"
        }
      ],
      "stateMutability": "view",
      "type": "function"
    },
    {
      "inputs": [
        {
          "internalType": "string",
          "name": "contentId",
          "type": "string"
        }
      ],
      "name": "ownerOf",
      "outputs": [
        {
          "internalType": "address",
          "name": "",
          "type": "address"
        }
      ],
      "stateMutability": "view",
      "type": "function"
    },
    {
      "inputs": [
        {
          "internalType": "string",
          "name": "contentId",
          "type": "string"
        },
        {
          "internalType": "address",
          "name": "user",
          "type": "address"
        }
      ],
      "name": "revokePermission",
      "outputs": [],
      "stateMutability": "nonpayable",
      "type": "function"
    },
    {
      "inputs": [
        {
          "internalType": "string",
          "name": "contentId",
          "type": "string"
        },
        {
          "internalType": "address",
          "name": "newOwner",
          "type": "address"
        },
        {
          "internalType": "address[]",
          "name": "permUsers",
          "type": "address[]"
        }
      ],
      "name": "transferOwnership",
      "outputs": [],
      "stateMutability": "nonpayable",
      "type": "function"
    }
  ],
  "bytecode": "0x608060405234801561001057600080fd5b506001600055610fcd806100256000396000f3fe608060405234801561001057600080fd5b506004361061007d5760003560e01c80635b2c9cae1161005b5780635b2c9cae146100bd57806382f8fc5d146100e5578063920ffa26146100f8578063ff4f5e401461012357600080fd5b806328a24e35146100825780633e839c021461009757806342e8ce2a146100aa575b600080fd5b610095610090366004610cd3565b610136565b005b6100956100a5366004610d57565b6103c1565b6100956100b8366004610dc3565b610578565b6100d06100cb366004610dc3565b610665565b60405190151581526020015b60405180910390f35b6100956100f3366004610e17565b6106e0565b61010b610106366004610e17565b610831565b6040516001600160a01b0390911681526020016100dc565b610095610131366004610dc3565b610866565b848460006001600160a01b031660018383604051610155929190610e59565b908152604051908190036020019020546001600160a01b031614156101955760405162461bcd60e51b815260040161018c90610e69565b60405180910390fd5b600182826040516101a7929190610e59565b908152604051908190036020019020546001600160a01b03166101c73390565b6001600160a01b0316146101ed5760405162461bcd60e51b815260040161018c90610e98565b600260005414156102105760405162461bcd60e51b815260040161018c90610ec6565b60026000556001600160a01b03851661027d5760405162461bcd60e51b815260206004820152602960248201527f43616e6e6f74207472616e73666572206f776e65727368697020746f207a65726044820152686f206164647265737360b81b606482015260840161018c565b6001878760405161028f929190610e59565b908152604051908190036020019020546001600160a01b03868116911614156103045760405162461bcd60e51b815260206004820152602160248201527f43616e6e6f74207472616e73666572206f776e65727368697020746f2073656c6044820152603360f91b606482015260840161018c565b61031087878686610a8b565b8460018888604051610323929190610e59565b90815260405190819003602001902080546001600160a01b039283166001600160a01b031990911617905585166103573390565b6001600160a01b03168888604051610370929190610e59565b60405180910390207f3d869cfb685472523a6bbaa38c9089e98e740dbe5d20984990eb8f07e1064de88a8a426040516103ab93929190610efd565b60405180910390a4505060016000555050505050565b838360006001600160a01b0316600183836040516103e0929190610e59565b908152604051908190036020019020546001600160a01b031614156104175760405162461bcd60e51b815260040161018c90610e69565b60018282604051610429929190610e59565b908152604051908190036020019020546001600160a01b03166104493390565b6001600160a01b03161461046f5760405162461bcd60e51b815260040161018c90610e98565b600260005414156104925760405162461bcd60e51b815260040161018c90610ec6565b600260005582156104a9576104a986868686610a8b565b6000600187876040516104bd929190610e59565b908152604051908190036020018120546001600160a01b031691506000906001906104eb908a908a90610e59565b90815260405190819003602001812080546001600160a01b039384166001600160a01b0319909116179055908216906105279089908990610e59565b60405180910390207f4c35689faac2abcd36c1e3316b3d062943c84e26dea4980783a1eca211afa09589894260405161056293929190610efd565b60405180910390a3505060016000555050505050565b828260006001600160a01b031660018383604051610597929190610e59565b908152604051908190036020019020546001600160a01b031614156105ce5760405162461bcd60e51b815260040161018c90610e69565b600182826040516105e0929190610e59565b908152604051908190036020019020546001600160a01b03166106003390565b6001600160a01b0316146106265760405162461bcd60e51b815260040161018c90610e98565b600260005414156106495760405162461bcd60e51b815260040161018c90610ec6565b6002600055610659858585610ae0565b50506001600055505050565b600060028484604051610679929190610e59565b90815260408051602092819003830190206001600160a01b0385166000908152925290205460ff16806106d85750600184846040516106b9929190610e59565b908152604051908190036020019020546001600160a01b038381169116145b949350505050565b600260005414156107035760405162461bcd60e51b815260040161018c90610ec6565b6002600090815560405160019061071d9085908590610e59565b908152604051908190036020019020546001600160a01b0316146107835760405162461bcd60e51b815260206004820181905260248201527f436f6e74656e7420616c726561647920616464656420616e64206f776e65642e604482015260640161018c565b3360018383604051610796929190610e59565b90815260405190819003602001902080546001600160a01b03929092166001600160a01b03199092169190911790556107cc3390565b6001600160a01b031682826040516107e5929190610e59565b60405180910390207f5494121a572ad4bb95f71421f90f66afeb9a55c1436fb2379f8303715b0fd3d784844260405161082093929190610efd565b60405180910390a350506001600055565b600060018383604051610845929190610e59565b908152604051908190036020019020546001600160a01b0316905092915050565b828260006001600160a01b031660018383604051610885929190610e59565b908152604051908190036020019020546001600160a01b031614156108bc5760405162461bcd60e51b815260040161018c90610e69565b600182826040516108ce929190610e59565b908152604051908190036020019020546001600160a01b03166108ee3390565b6001600160a01b0316146109145760405162461bcd60e51b815260040161018c90610e98565b600260005414156109375760405162461bcd60e51b815260040161018c90610ec6565b6002600081905560405161094e9087908790610e59565b90815260408051602092819003830190206001600160a01b0386166000908152925290205460ff16156109d95760405162461bcd60e51b815260206004820152602d60248201527f5573657220616c726561647920686173207065726d697373696f6e20746f206160448201526c18d8d95cdcc818dbdb9d195b9d609a1b606482015260840161018c565b6001600286866040516109ed929190610e59565b90815260408051602092819003830190206001600160a01b03871660008181529190935220805460ff191692151592909217909155336001600160a01b03168686604051610a3c929190610e59565b60405180910390207fbabccd091abf3ee76405b4520c33fc211a3b2a9af0f4d027db57678d4ac70c24888842604051610a7793929190610efd565b60405180910390a450506001600055505050565b60005b81811015610ad957610ac78585858585818110610aad57610aad610f36565b9050602002016020810190610ac29190610f4c565b610ae0565b80610ad181610f6e565b915050610a8e565b5050505050565b60028383604051610af2929190610e59565b90815260408051602092819003830190206001600160a01b0384166000908152925290205460ff16610b7e5760405162461bcd60e51b815260206004820152602f60248201527f5573657220646f6573206e6f742068617665207065726d697373696f6e20746f60448201526e081858d8d95cdcc818dbdb9d195b9d608a1b606482015260840161018c565b600060028484604051610b92929190610e59565b90815260408051602092819003830190206001600160a01b03851660008181529190935220805460ff191692151592909217909155336001600160a01b03168484604051610be1929190610e59565b60405180910390207f0132b534ebe87e7a4b4f606e4489e4f6c2258ed79bce65b4ed24c3bd1833aa68868642604051610c1c93929190610efd565b60405180910390a4505050565b60008083601f840112610c3b57600080fd5b50813567ffffffffffffffff811115610c5357600080fd5b602083019150836020828501011115610c6b57600080fd5b9250929050565b80356001600160a01b0381168114610c8957600080fd5b919050565b60008083601f840112610ca057600080fd5b50813567ffffffffffffffff811115610cb857600080fd5b6020830191508360208260051b8501011115610c6b57600080fd5b600080600080600060608688031215610ceb57600080fd5b853567ffffffffffffffff80821115610d0357600080fd5b610d0f89838a01610c29565b9097509550859150610d2360208901610c72565b94506040880135915080821115610d3957600080fd5b50610d4688828901610c8e565b969995985093965092949392505050565b60008060008060408587031215610d6d57600080fd5b843567ffffffffffffffff80821115610d8557600080fd5b610d9188838901610c29565b90965094506020870135915080821115610daa57600080fd5b50610db787828801610c8e565b95989497509550505050565b600080600060408486031215610dd857600080fd5b833567ffffffffffffffff811115610def57600080fd5b610dfb86828701610c29565b9094509250610e0e905060208501610c72565b90509250925092565b60008060208385031215610e2a57600080fd5b823567ffffffffffffffff811115610e4157600080fd5b610e4d85828601610c29565b90969095509350505050565b8183823760009101908152919050565b60208082526015908201527410dbdb9d195b9d081b9bdd081859191959081e595d605a1b604082015260600190565b602080825260149082015273139bdd081bdddb995c881bd98818dbdb9d195b9d60621b604082015260600190565b6020808252601f908201527f5265656e7472616e637947756172643a207265656e7472616e742063616c6c00604082015260600190565b604081528260408201528284606083013760006060848301015260006060601f19601f8601168301019050826020830152949350505050565b634e487b7160e01b600052603260045260246000fd5b600060208284031215610f5e57600080fd5b610f6782610c72565b9392505050565b6000600019821415610f9057634e487b7160e01b600052601160045260246000fd5b506001019056fea264697066735822122028d52667500cfd54b5e47765a42612b4a8db513f13c7d5de6e5bf16025c2724f64736f6c63430008090033",
  "linkReferences": {},
  "deployedLinkReferences": {}
}